{
  "address": "0x0165878A594ca255338adfa4d48449f69242Eb8F",
  "abi": [
    {
      "inputs": [
        {
          "internalType": "address",
          "name": "priceFeeAddress",
          "type": "address"
        },
        {
          "internalType": "string",
          "name": "lowSVG",
          "type": "string"
        },
        {
          "internalType": "string",
          "name": "highSVG",
          "type": "string"
        }
      ],
      "stateMutability": "nonpayable",
      "type": "constructor"
    },
    {
      "anonymous": false,
      "inputs": [
        {
          "indexed": true,
          "internalType": "address",
          "name": "owner",
          "type": "address"
        },
        {
          "indexed": true,
          "internalType": "address",
          "name": "approved",
          "type": "address"
        },
        {
          "indexed": true,
          "internalType": "uint256",
          "name": "tokenId",
          "type": "uint256"
        }
      ],
      "name": "Approval",
      "type": "event"
    },
    {
      "anonymous": false,
      "inputs": [
        {
          "indexed": true,
          "internalType": "address",
          "name": "owner",
          "type": "address"
        },
        {
          "indexed": true,
          "internalType": "address",
          "name": "operator",
          "type": "address"
        },
        {
          "indexed": false,
          "internalType": "bool",
          "name": "approved",
          "type": "bool"
        }
      ],
      "name": "ApprovalForAll",
      "type": "event"
    },
    {
      "anonymous": false,
      "inputs": [
        {
          "indexed": true,
          "internalType": "uint256",
          "name": "tokenId",
          "type": "uint256"
        },
        {
          "indexed": false,
          "internalType": "uint256",
          "name": "highValue",
          "type": "uint256"
        }
      ],
      "name": "CreatedNFT",
      "type": "event"
    },
    {
      "anonymous": false,
      "inputs": [
        {
          "indexed": true,
          "internalType": "address",
          "name": "previousOwner",
          "type": "address"
        },
        {
          "indexed": true,
          "internalType": "address",
          "name": "newOwner",
          "type": "address"
        }
      ],
      "name": "OwnershipTransferred",
      "type": "event"
    },
    {
      "anonymous": false,
      "inputs": [
        {
          "indexed": true,
          "internalType": "address",
          "name": "from",
          "type": "address"
        },
        {
          "indexed": true,
          "internalType": "address",
          "name": "to",
          "type": "address"
        },
        {
          "indexed": true,
          "internalType": "uint256",
          "name": "tokenId",
          "type": "uint256"
        }
      ],
      "name": "Transfer",
      "type": "event"
    },
    {
      "inputs": [
        {
          "internalType": "address",
          "name": "to",
          "type": "address"
        },
        {
          "internalType": "uint256",
          "name": "tokenId",
          "type": "uint256"
        }
      ],
      "name": "approve",
      "outputs": [],
      "stateMutability": "nonpayable",
      "type": "function"
    },
    {
      "inputs": [
        {
          "internalType": "address",
          "name": "owner",
          "type": "address"
        }
      ],
      "name": "balanceOf",
      "outputs": [
        {
          "internalType": "uint256",
          "name": "",
          "type": "uint256"
        }
      ],
      "stateMutability": "view",
      "type": "function"
    },
    {
      "inputs": [
        {
          "internalType": "uint256",
          "name": "tokenId",
          "type": "uint256"
        }
      ],
      "name": "getApproved",
      "outputs": [
        {
          "internalType": "address",
          "name": "",
          "type": "address"
        }
      ],
      "stateMutability": "view",
      "type": "function"
    },
    {
      "inputs": [],
      "name": "getHighSVG",
      "outputs": [
        {
          "internalType": "string",
          "name": "",
          "type": "string"
        }
      ],
      "stateMutability": "view",
      "type": "function"
    },
    {
      "inputs": [],
      "name": "getLowSVG",
      "outputs": [
        {
          "internalType": "string",
          "name": "",
          "type": "string"
        }
      ],
      "stateMutability": "view",
      "type": "function"
    },
    {
      "inputs": [],
      "name": "getPriceFeed",
      "outputs": [
        {
          "internalType": "contract AggregatorV3Interface",
          "name": "",
          "type": "address"
        }
      ],
      "stateMutability": "view",
      "type": "function"
    },
    {
      "inputs": [],
      "name": "getTokenCounter",
      "outputs": [
        {
          "internalType": "uint256",
          "name": "",
          "type": "uint256"
        }
      ],
      "stateMutability": "view",
      "type": "function"
    },
    {
      "inputs": [
        {
          "internalType": "address",
          "name": "owner",
          "type": "address"
        },
        {
          "internalType": "address",
          "name": "operator",
          "type": "address"
        }
      ],
      "name": "isApprovedForAll",
      "outputs": [
        {
          "internalType": "bool",
          "name": "",
          "type": "bool"
        }
      ],
      "stateMutability": "view",
      "type": "function"
    },
    {
      "inputs": [
        {
          "internalType": "uint256",
          "name": "highValue",
          "type": "uint256"
        }
      ],
      "name": "mintNft",
      "outputs": [],
      "stateMutability": "nonpayable",
      "type": "function"
    },
    {
      "inputs": [],
      "name": "name",
      "outputs": [
        {
          "internalType": "string",
          "name": "",
          "type": "string"
        }
      ],
      "stateMutability": "view",
      "type": "function"
    },
    {
      "inputs": [],
      "name": "owner",
      "outputs": [
        {
          "internalType": "address",
          "name": "",
          "type": "address"
        }
      ],
      "stateMutability": "view",
      "type": "function"
    },
    {
      "inputs": [
        {
          "internalType": "uint256",
          "name": "tokenId",
          "type": "uint256"
        }
      ],
      "name": "ownerOf",
      "outputs": [
        {
          "internalType": "address",
          "name": "",
          "type": "address"
        }
      ],
      "stateMutability": "view",
      "type": "function"
    },
    {
      "inputs": [],
      "name": "renounceOwnership",
      "outputs": [],
      "stateMutability": "nonpayable",
      "type": "function"
    },
    {
      "inputs": [
        {
          "internalType": "uint256",
          "name": "",
          "type": "uint256"
        }
      ],
      "name": "s_tokenIdToHighValue",
      "outputs": [
        {
          "internalType": "uint256",
          "name": "",
          "type": "uint256"
        }
      ],
      "stateMutability": "view",
      "type": "function"
    },
    {
      "inputs": [
        {
          "internalType": "address",
          "name": "from",
          "type": "address"
        },
        {
          "internalType": "address",
          "name": "to",
          "type": "address"
        },
        {
          "internalType": "uint256",
          "name": "tokenId",
          "type": "uint256"
        }
      ],
      "name": "safeTransferFrom",
      "outputs": [],
      "stateMutability": "nonpayable",
      "type": "function"
    },
    {
      "inputs": [
        {
          "internalType": "address",
          "name": "from",
          "type": "address"
        },
        {
          "internalType": "address",
          "name": "to",
          "type": "address"
        },
        {
          "internalType": "uint256",
          "name": "tokenId",
          "type": "uint256"
        },
        {
          "internalType": "bytes",
          "name": "data",
          "type": "bytes"
        }
      ],
      "name": "safeTransferFrom",
      "outputs": [],
      "stateMutability": "nonpayable",
      "type": "function"
    },
    {
      "inputs": [
        {
          "internalType": "address",
          "name": "operator",
          "type": "address"
        },
        {
          "internalType": "bool",
          "name": "approved",
          "type": "bool"
        }
      ],
      "name": "setApprovalForAll",
      "outputs": [],
      "stateMutability": "nonpayable",
      "type": "function"
    },
    {
      "inputs": [
        {
          "internalType": "bytes4",
          "name": "interfaceId",
          "type": "bytes4"
        }
      ],
      "name": "supportsInterface",
      "outputs": [
        {
          "internalType": "bool",
          "name": "",
          "type": "bool"
        }
      ],
      "stateMutability": "view",
      "type": "function"
    },
    {
      "inputs": [
        {
          "internalType": "string",
          "name": "svg",
          "type": "string"
        }
      ],
      "name": "svgToImageURI",
      "outputs": [
        {
          "internalType": "string",
          "name": "",
          "type": "string"
        }
      ],
      "stateMutability": "pure",
      "type": "function"
    },
    {
      "inputs": [],
      "name": "symbol",
      "outputs": [
        {
          "internalType": "string",
          "name": "",
          "type": "string"
        }
      ],
      "stateMutability": "view",
      "type": "function"
    },
    {
      "inputs": [
        {
          "internalType": "uint256",
          "name": "tokenId",
          "type": "uint256"
        }
      ],
      "name": "tokenURI",
      "outputs": [
        {
          "internalType": "string",
          "name": "",
          "type": "string"
        }
      ],
      "stateMutability": "view",
      "type": "function"
    },
    {
      "inputs": [
        {
          "internalType": "address",
          "name": "from",
          "type": "address"
        },
        {
          "internalType": "address",
          "name": "to",
          "type": "address"
        },
        {
          "internalType": "uint256",
          "name": "tokenId",
          "type": "uint256"
        }
      ],
      "name": "transferFrom",
      "outputs": [],
      "stateMutability": "nonpayable",
      "type": "function"
    },
    {
      "inputs": [
        {
          "internalType": "address",
          "name": "newOwner",
          "type": "address"
        }
      ],
      "name": "transferOwnership",
      "outputs": [],
      "stateMutability": "nonpayable",
      "type": "function"
    }
  ],
  "transactionHash": "0x7e65a812590ac6424820cc482ddf504c209ac6e0389a0813b03582f1e3adb03f",
  "args": [
    "0xe7f1725E7734CE288F8367e1Bb143E90bb3F0512",
    "<?xml version=\"1.0\" standalone=\"no\"?>\n<svg width=\"1024px\" height=\"1024px\" viewBox=\"0 0 1024 1024\" xmlns=\"http://www.w3.org/2000/svg\">\n\t<path fill=\"#333\" d=\"M512 64C264.6 64 64 264.6 64 512s200.6 448 448 448 448-200.6 448-448S759.4 64 512 64zm0 820c-205.4 0-372-166.6-372-372s166.6-372 372-372 372 166.6 372 372-166.6 372-372 372z\" />\n\t<path fill=\"#E6E6E6\" d=\"M512 140c-205.4 0-372 166.6-372 372s166.6 372 372 372 372-166.6 372-372-166.6-372-372-372zM288 421a48.01 48.01 0 0 1 96 0 48.01 48.01 0 0 1-96 0zm376 272h-48.1c-4.2 0-7.8-3.2-8.1-7.4C604 636.1 562.5 597 512 597s-92.1 39.1-95.8 88.6c-.3 4.2-3.9 7.4-8.1 7.4H360a8 8 0 0 1-8-8.4c4.4-84.3 74.5-151.6 160-151.6s155.6 67.3 160 151.6a8 8 0 0 1-8 8.4zm24-224a48.01 48.01 0 0 1 0-96 48.01 48.01 0 0 1 0 96z\" />\n\t<path fill=\"#333\" d=\"M288 421a48 48 0 1 0 96 0 48 48 0 1 0-96 0zm224 112c-85.5 0-155.6 67.3-160 151.6a8 8 0 0 0 8 8.4h48.1c4.2 0 7.8-3.2 8.1-7.4 3.7-49.5 45.3-88.6 95.8-88.6s92 39.1 95.8 88.6c.3 4.2 3.9 7.4 8.1 7.4H664a8 8 0 0 0 8-8.4C667.6 600.3 597.5 533 512 533zm128-112a48 48 0 1 0 96 0 48 48 0 1 0-96 0z\" />\n</svg>",
    "<svg viewBox=\"0 0 200 200\" width=\"400\"  height=\"400\" xmlns=\"http://www.w3.org/2000/svg\">\n  <circle cx=\"100\" cy=\"100\" fill=\"yellow\" r=\"78\" stroke=\"black\" stroke-width=\"3\"/>\n  <g class=\"eyes\">\n    <circle cx=\"61\" cy=\"82\" r=\"12\"/>\n    <circle cx=\"127\" cy=\"82\" r=\"12\"/>\n  </g>\n  <path d=\"m136.81 116.53c.69 26.17-64.11 42-81.52-.73\" style=\"fill:none; stroke: black; stroke-width: 3;\"/>\n</svg>"
  ],
  "numDeployments": 1,
  "solcInputHash": "3876ab88815e0716f8d2a8bfefd12b39",
  "bytecode": "0x60806040523480156200001157600080fd5b50604051620040d1380380620040d1833981810160405281019062000037919062000747565b6040518060400160405280600f81526020017f44796e616d6963204e46542053564700000000000000000000000000000000008152506040518060400160405280600381526020017f44534e00000000000000000000000000000000000000000000000000000000008152508160009080519060200190620000bb92919062000495565b508060019080519060200190620000d492919062000495565b505050620000f7620000eb6200019b60201b60201c565b620001a360201b60201c565b82600a60006101000a81548173ffffffffffffffffffffffffffffffffffffffff021916908373ffffffffffffffffffffffffffffffffffffffff160217905550600060078190555062000151826200026960201b60201c565b600890805190602001906200016892919062000495565b506200017a816200026960201b60201c565b600990805190602001906200019192919062000495565b5050505062000a32565b600033905090565b6000600660009054906101000a900473ffffffffffffffffffffffffffffffffffffffff16905081600660006101000a81548173ffffffffffffffffffffffffffffffffffffffff021916908373ffffffffffffffffffffffffffffffffffffffff1602179055508173ffffffffffffffffffffffffffffffffffffffff168173ffffffffffffffffffffffffffffffffffffffff167f8be0079c531659141344cd1fd0a4f28419497f9722a3daafe3b4186f6b6457e060405160405180910390a35050565b60606000620002a4836040516020016200028491906200082e565b6040516020818303038152906040526200030760201b6200107d1760201c565b90506040518060400160405280601a81526020017f646174613a696d6167652f7376672b786d6c3b6261736536342c00000000000081525081604051602001620002f092919062000847565b604051602081830303815290604052915050919050565b60606000825114156200032c5760405180602001604052806000815250905062000490565b60006040518060600160405280604081526020016200409160409139905060006003600285516200035e9190620008a8565b6200036a919062000934565b60046200037891906200096c565b905060006020826200038b9190620008a8565b67ffffffffffffffff811115620003a757620003a6620005d9565b5b6040519080825280601f01601f191660200182016040528015620003da5781602001600182028036833780820191505090505b509050818152600183018586518101602084015b818310156200044b576003830192508251603f8160121c168501518253600182019150603f81600c1c168501518253600182019150603f8160061c168501518253600182019150603f8116850151825360018201915050620003ee565b600389510660018114620004685760028114620004795762000484565b613d3d60f01b600283035262000484565b603d60f81b60018303525b50505050508093505050505b919050565b828054620004a390620009fc565b90600052602060002090601f016020900481019282620004c7576000855562000513565b82601f10620004e257805160ff191683800117855562000513565b8280016001018555821562000513579182015b8281111562000512578251825591602001919060010190620004f5565b5b50905062000522919062000526565b5090565b5b808211156200054157600081600090555060010162000527565b5090565b6000604051905090565b600080fd5b600080fd5b600073ffffffffffffffffffffffffffffffffffffffff82169050919050565b6000620005868262000559565b9050919050565b620005988162000579565b8114620005a457600080fd5b50565b600081519050620005b8816200058d565b92915050565b600080fd5b600080fd5b6000601f19601f8301169050919050565b7f4e487b7100000000000000000000000000000000000000000000000000000000600052604160045260246000fd5b6200061382620005c8565b810181811067ffffffffffffffff82111715620006355762000634620005d9565b5b80604052505050565b60006200064a62000545565b905062000658828262000608565b919050565b600067ffffffffffffffff8211156200067b576200067a620005d9565b5b6200068682620005c8565b9050602081019050919050565b60005b83811015620006b357808201518184015260208101905062000696565b83811115620006c3576000848401525b50505050565b6000620006e0620006da846200065d565b6200063e565b905082815260208101848484011115620006ff57620006fe620005c3565b5b6200070c84828562000693565b509392505050565b600082601f8301126200072c576200072b620005be565b5b81516200073e848260208601620006c9565b91505092915050565b6000806000606084860312156200076357620007626200054f565b5b60006200077386828701620005a7565b935050602084015167ffffffffffffffff81111562000797576200079662000554565b5b620007a58682870162000714565b925050604084015167ffffffffffffffff811115620007c957620007c862000554565b5b620007d78682870162000714565b9150509250925092565b600081519050919050565b600081905092915050565b60006200080482620007e1565b620008108185620007ec565b93506200082281856020860162000693565b80840191505092915050565b60006200083c8284620007f7565b915081905092915050565b6000620008558285620007f7565b9150620008638284620007f7565b91508190509392505050565b6000819050919050565b7f4e487b7100000000000000000000000000000000000000000000000000000000600052601160045260246000fd5b6000620008b5826200086f565b9150620008c2836200086f565b9250827fffffffffffffffffffffffffffffffffffffffffffffffffffffffffffffffff03821115620008fa57620008f962000879565b5b828201905092915050565b7f4e487b7100000000000000000000000000000000000000000000000000000000600052601260045260246000fd5b600062000941826200086f565b91506200094e836200086f565b92508262000961576200096062000905565b5b828204905092915050565b600062000979826200086f565b915062000986836200086f565b9250817fffffffffffffffffffffffffffffffffffffffffffffffffffffffffffffffff0483118215151615620009c257620009c162000879565b5b828202905092915050565b7f4e487b7100000000000000000000000000000000000000000000000000000000600052602260045260246000fd5b6000600282049050600182168062000a1557607f821691505b6020821081141562000a2c5762000a2b620009cd565b5b50919050565b61364f8062000a426000396000f3fe608060405234801561001057600080fd5b506004361061014d5760003560e01c8063715018a6116100c3578063b88d4fde1161007c578063b88d4fde1461038c578063c87b56dd146103a8578063e425aded146103d8578063e985e9c514610408578063ed28a12214610438578063f2fde38b146104565761014d565b8063715018a6146102ee57806376f6056b146102f85780638da5cb5b1461031657806395d89b41146103345780639e87a5cd14610352578063a22cb465146103705761014d565b806323b872dd1161011557806323b872dd1461020857806330d871c61461022457806342842e0e146102545780636352211e146102705780636e02007d146102a057806370a08231146102be5761014d565b806301ffc9a71461015257806306fdde0314610182578063081812fc146101a0578063095ea7b3146101d05780630d730acc146101ec575b600080fd5b61016c60048036038101906101679190611f61565b610472565b6040516101799190611fa9565b60405180910390f35b61018a610554565b604051610197919061205d565b60405180910390f35b6101ba60048036038101906101b591906120b5565b6105e6565b6040516101c79190612123565b60405180910390f35b6101ea60048036038101906101e5919061216a565b61062c565b005b610206600480360381019061020191906120b5565b610744565b005b610222600480360381019061021d91906121aa565b6107c1565b005b61023e60048036038101906102399190612332565b610821565b60405161024b919061205d565b60405180910390f35b61026e600480360381019061026991906121aa565b6108ae565b005b61028a600480360381019061028591906120b5565b6108ce565b6040516102979190612123565b60405180910390f35b6102a8610980565b6040516102b5919061238a565b60405180910390f35b6102d860048036038101906102d391906123a5565b61098a565b6040516102e5919061238a565b60405180910390f35b6102f6610a42565b005b610300610a56565b60405161030d919061205d565b60405180910390f35b61031e610ae8565b60405161032b9190612123565b60405180910390f35b61033c610b12565b604051610349919061205d565b60405180910390f35b61035a610ba4565b6040516103679190612431565b60405180910390f35b61038a60048036038101906103859190612478565b610bce565b005b6103a660048036038101906103a19190612559565b610be4565b005b6103c260048036038101906103bd91906120b5565b610c46565b6040516103cf919061205d565b60405180910390f35b6103f260048036038101906103ed91906120b5565b610ebb565b6040516103ff919061238a565b60405180910390f35b610422600480360381019061041d91906125dc565b610ed3565b60405161042f9190611fa9565b60405180910390f35b610440610f67565b60405161044d919061205d565b60405180910390f35b610470600480360381019061046b91906123a5565b610ff9565b005b60007f80ac58cd000000000000000000000000000000000000000000000000000000007bffffffffffffffffffffffffffffffffffffffffffffffffffffffff1916827bffffffffffffffffffffffffffffffffffffffffffffffffffffffff1916148061053d57507f5b5e139f000000000000000000000000000000000000000000000000000000007bffffffffffffffffffffffffffffffffffffffffffffffffffffffff1916827bffffffffffffffffffffffffffffffffffffffffffffffffffffffff1916145b8061054d575061054c826111f6565b5b9050919050565b6060600080546105639061264b565b80601f016020809104026020016040519081016040528092919081815260200182805461058f9061264b565b80156105dc5780601f106105b1576101008083540402835291602001916105dc565b820191906000526020600020905b8154815290600101906020018083116105bf57829003601f168201915b5050505050905090565b60006105f182611260565b6004600083815260200190815260200160002060009054906101000a900473ffffffffffffffffffffffffffffffffffffffff169050919050565b6000610637826108ce565b90508073ffffffffffffffffffffffffffffffffffffffff168373ffffffffffffffffffffffffffffffffffffffff1614156106a8576040517f08c379a000000000000000000000000000000000000000000000000000000000815260040161069f906126ef565b60405180910390fd5b8073ffffffffffffffffffffffffffffffffffffffff166106c76112ab565b73ffffffffffffffffffffffffffffffffffffffff1614806106f657506106f5816106f06112ab565b610ed3565b5b610735576040517f08c379a000000000000000000000000000000000000000000000000000000000815260040161072c90612781565b60405180910390fd5b61073f83836112b3565b505050565b80600b600060075481526020019081526020016000208190555061076a3360075461136c565b6007547fd329d47a9928e7ffa63146b7b8947f74c1e05145d61dc61ce96e83df1339c04b8260405161079c919061238a565b60405180910390a26001600760008282546107b791906127d0565b9250508190555050565b6107d26107cc6112ab565b8261138a565b610811576040517f08c379a000000000000000000000000000000000000000000000000000000000815260040161080890612898565b60405180910390fd5b61081c83838361141f565b505050565b6060600061084d8360405160200161083991906128f4565b60405160208183030381529060405261107d565b90506040518060400160405280601a81526020017f646174613a696d6167652f7376672b786d6c3b6261736536342c0000000000008152508160405160200161089792919061290b565b604051602081830303815290604052915050919050565b6108c983838360405180602001604052806000815250610be4565b505050565b6000806002600084815260200190815260200160002060009054906101000a900473ffffffffffffffffffffffffffffffffffffffff169050600073ffffffffffffffffffffffffffffffffffffffff168173ffffffffffffffffffffffffffffffffffffffff161415610977576040517f08c379a000000000000000000000000000000000000000000000000000000000815260040161096e9061297b565b60405180910390fd5b80915050919050565b6000600754905090565b60008073ffffffffffffffffffffffffffffffffffffffff168273ffffffffffffffffffffffffffffffffffffffff1614156109fb576040517f08c379a00000000000000000000000000000000000000000000000000000000081526004016109f290612a0d565b60405180910390fd5b600360008373ffffffffffffffffffffffffffffffffffffffff1673ffffffffffffffffffffffffffffffffffffffff168152602001908152602001600020549050919050565b610a4a611686565b610a546000611704565b565b606060088054610a659061264b565b80601f0160208091040260200160405190810160405280929190818152602001828054610a919061264b565b8015610ade5780601f10610ab357610100808354040283529160200191610ade565b820191906000526020600020905b815481529060010190602001808311610ac157829003601f168201915b5050505050905090565b6000600660009054906101000a900473ffffffffffffffffffffffffffffffffffffffff16905090565b606060018054610b219061264b565b80601f0160208091040260200160405190810160405280929190818152602001828054610b4d9061264b565b8015610b9a5780601f10610b6f57610100808354040283529160200191610b9a565b820191906000526020600020905b815481529060010190602001808311610b7d57829003601f168201915b5050505050905090565b6000600a60009054906101000a900473ffffffffffffffffffffffffffffffffffffffff16905090565b610be0610bd96112ab565b83836117ca565b5050565b610bf5610bef6112ab565b8361138a565b610c34576040517f08c379a0000000000000000000000000000000000000000000000000000000008152600401610c2b90612898565b60405180910390fd5b610c4084848484611937565b50505050565b6060610c5182611993565b610c90576040517f08c379a0000000000000000000000000000000000000000000000000000000008152600401610c8790612a9f565b60405180910390fd5b600060088054610c9f9061264b565b80601f0160208091040260200160405190810160405280929190818152602001828054610ccb9061264b565b8015610d185780601f10610ced57610100808354040283529160200191610d18565b820191906000526020600020905b815481529060010190602001808311610cfb57829003601f168201915b50505050509050600b600084815260200190815260200160002054610d3b6119ff565b10610dce5760098054610d4d9061264b565b80601f0160208091040260200160405190810160405280929190818152602001828054610d799061264b565b8015610dc65780601f10610d9b57610100808354040283529160200191610dc6565b820191906000526020600020905b815481529060010190602001808311610da957829003601f168201915b505050505090505b6000610dd8610554565b604051602001610de89190612b57565b6040516020818303038152906040529050600082604051602001610e0c9190612bd0565b6040516020818303038152906040529050600060405180608001604052806048815260200161355760489139905060006040518060600160405280603b81526020016135df603b91399050610e5f611abf565b610e8f8584868686604051602001610e7b959493929190612ce1565b60405160208183030381529060405261107d565b604051602001610ea092919061290b565b60405160208183030381529060405295505050505050919050565b600b6020528060005260406000206000915090505481565b6000600560008473ffffffffffffffffffffffffffffffffffffffff1673ffffffffffffffffffffffffffffffffffffffff16815260200190815260200160002060008373ffffffffffffffffffffffffffffffffffffffff1673ffffffffffffffffffffffffffffffffffffffff16815260200190815260200160002060009054906101000a900460ff16905092915050565b606060088054610f769061264b565b80601f0160208091040260200160405190810160405280929190818152602001828054610fa29061264b565b8015610fef5780601f10610fc457610100808354040283529160200191610fef565b820191906000526020600020905b815481529060010190602001808311610fd257829003601f168201915b5050505050905090565b611001611686565b600073ffffffffffffffffffffffffffffffffffffffff168173ffffffffffffffffffffffffffffffffffffffff161415611071576040517f08c379a000000000000000000000000000000000000000000000000000000000815260040161106890612de0565b60405180910390fd5b61107a81611704565b50565b60606000825114156110a0576040518060200160405280600081525090506111f1565b600060405180606001604052806040815260200161359f60409139905060006003600285516110cf91906127d0565b6110d99190612e2f565b60046110e59190612e60565b905060006020826110f691906127d0565b67ffffffffffffffff81111561110f5761110e612207565b5b6040519080825280601f01601f1916602001820160405280156111415781602001600182028036833780820191505090505b509050818152600183018586518101602084015b818310156111b0576003830192508251603f8160121c168501518253600182019150603f81600c1c168501518253600182019150603f8160061c168501518253600182019150603f8116850151825360018201915050611155565b6003895106600181146111ca57600281146111da576111e5565b613d3d60f01b60028303526111e5565b603d60f81b60018303525b50505050508093505050505b919050565b60007f01ffc9a7000000000000000000000000000000000000000000000000000000007bffffffffffffffffffffffffffffffffffffffffffffffffffffffff1916827bffffffffffffffffffffffffffffffffffffffffffffffffffffffff1916149050919050565b61126981611993565b6112a8576040517f08c379a000000000000000000000000000000000000000000000000000000000815260040161129f9061297b565b60405180910390fd5b50565b600033905090565b816004600083815260200190815260200160002060006101000a81548173ffffffffffffffffffffffffffffffffffffffff021916908373ffffffffffffffffffffffffffffffffffffffff160217905550808273ffffffffffffffffffffffffffffffffffffffff16611326836108ce565b73ffffffffffffffffffffffffffffffffffffffff167f8c5be1e5ebec7d5bd14f71427d1e84f3dd0314c0f7b2291e5b200ac8c7c3b92560405160405180910390a45050565b611386828260405180602001604052806000815250611afc565b5050565b600080611396836108ce565b90508073ffffffffffffffffffffffffffffffffffffffff168473ffffffffffffffffffffffffffffffffffffffff1614806113d857506113d78185610ed3565b5b8061141657508373ffffffffffffffffffffffffffffffffffffffff166113fe846105e6565b73ffffffffffffffffffffffffffffffffffffffff16145b91505092915050565b8273ffffffffffffffffffffffffffffffffffffffff1661143f826108ce565b73ffffffffffffffffffffffffffffffffffffffff1614611495576040517f08c379a000000000000000000000000000000000000000000000000000000000815260040161148c90612f2c565b60405180910390fd5b600073ffffffffffffffffffffffffffffffffffffffff168273ffffffffffffffffffffffffffffffffffffffff161415611505576040517f08c379a00000000000000000000000000000000000000000000000000000000081526004016114fc90612fbe565b60405180910390fd5b611510838383611b57565b61151b6000826112b3565b6001600360008573ffffffffffffffffffffffffffffffffffffffff1673ffffffffffffffffffffffffffffffffffffffff168152602001908152602001600020600082825461156b9190612fde565b925050819055506001600360008473ffffffffffffffffffffffffffffffffffffffff1673ffffffffffffffffffffffffffffffffffffffff16815260200190815260200160002060008282546115c291906127d0565b92505081905550816002600083815260200190815260200160002060006101000a81548173ffffffffffffffffffffffffffffffffffffffff021916908373ffffffffffffffffffffffffffffffffffffffff160217905550808273ffffffffffffffffffffffffffffffffffffffff168473ffffffffffffffffffffffffffffffffffffffff167fddf252ad1be2c89b69c2b068fc378daa952ba7f163c4a11628f55a4df523b3ef60405160405180910390a4611681838383611b5c565b505050565b61168e6112ab565b73ffffffffffffffffffffffffffffffffffffffff166116ac610ae8565b73ffffffffffffffffffffffffffffffffffffffff1614611702576040517f08c379a00000000000000000000000000000000000000000000000000000000081526004016116f99061305e565b60405180910390fd5b565b6000600660009054906101000a900473ffffffffffffffffffffffffffffffffffffffff16905081600660006101000a81548173ffffffffffffffffffffffffffffffffffffffff021916908373ffffffffffffffffffffffffffffffffffffffff1602179055508173ffffffffffffffffffffffffffffffffffffffff168173ffffffffffffffffffffffffffffffffffffffff167f8be0079c531659141344cd1fd0a4f28419497f9722a3daafe3b4186f6b6457e060405160405180910390a35050565b8173ffffffffffffffffffffffffffffffffffffffff168373ffffffffffffffffffffffffffffffffffffffff161415611839576040517f08c379a0000000000000000000000000000000000000000000000000000000008152600401611830906130ca565b60405180910390fd5b80600560008573ffffffffffffffffffffffffffffffffffffffff1673ffffffffffffffffffffffffffffffffffffffff16815260200190815260200160002060008473ffffffffffffffffffffffffffffffffffffffff1673ffffffffffffffffffffffffffffffffffffffff16815260200190815260200160002060006101000a81548160ff0219169083151502179055508173ffffffffffffffffffffffffffffffffffffffff168373ffffffffffffffffffffffffffffffffffffffff167f17307eab39ab6107e8899845ad3d59bd9653f200f220920489ca2b5937696c318360405161192a9190611fa9565b60405180910390a3505050565b61194284848461141f565b61194e84848484611b61565b61198d576040517f08c379a00000000000000000000000000000000000000000000000000000000081526004016119849061315c565b60405180910390fd5b50505050565b60008073ffffffffffffffffffffffffffffffffffffffff166002600084815260200190815260200160002060009054906101000a900473ffffffffffffffffffffffffffffffffffffffff1673ffffffffffffffffffffffffffffffffffffffff1614159050919050565b600080600a60009054906101000a900473ffffffffffffffffffffffffffffffffffffffff1673ffffffffffffffffffffffffffffffffffffffff1663feaf968c6040518163ffffffff1660e01b815260040160a06040518083038186803b158015611a6a57600080fd5b505afa158015611a7e573d6000803e3d6000fd5b505050506040513d601f19601f82011682018060405250810190611aa29190613209565b5050509150506402540be40081611ab99190613284565b91505090565b60606040518060400160405280601d81526020017f646174613a6170706c69636174696f6e2f6a736f6e3b6261736536342c000000815250905090565b611b068383611cf8565b611b136000848484611b61565b611b52576040517f08c379a0000000000000000000000000000000000000000000000000000000008152600401611b499061315c565b60405180910390fd5b505050565b505050565b505050565b6000611b828473ffffffffffffffffffffffffffffffffffffffff16611ed2565b15611ceb578373ffffffffffffffffffffffffffffffffffffffff1663150b7a02611bab6112ab565b8786866040518563ffffffff1660e01b8152600401611bcd94939291906133f0565b602060405180830381600087803b158015611be757600080fd5b505af1925050508015611c1857506040513d601f19601f82011682018060405250810190611c159190613451565b60015b611c9b573d8060008114611c48576040519150601f19603f3d011682016040523d82523d6000602084013e611c4d565b606091505b50600081511415611c93576040517f08c379a0000000000000000000000000000000000000000000000000000000008152600401611c8a9061315c565b60405180910390fd5b805181602001fd5b63150b7a0260e01b7bffffffffffffffffffffffffffffffffffffffffffffffffffffffff1916817bffffffffffffffffffffffffffffffffffffffffffffffffffffffff191614915050611cf0565b600190505b949350505050565b600073ffffffffffffffffffffffffffffffffffffffff168273ffffffffffffffffffffffffffffffffffffffff161415611d68576040517f08c379a0000000000000000000000000000000000000000000000000000000008152600401611d5f906134ca565b60405180910390fd5b611d7181611993565b15611db1576040517f08c379a0000000000000000000000000000000000000000000000000000000008152600401611da890613536565b60405180910390fd5b611dbd60008383611b57565b6001600360008473ffffffffffffffffffffffffffffffffffffffff1673ffffffffffffffffffffffffffffffffffffffff1681526020019081526020016000206000828254611e0d91906127d0565b92505081905550816002600083815260200190815260200160002060006101000a81548173ffffffffffffffffffffffffffffffffffffffff021916908373ffffffffffffffffffffffffffffffffffffffff160217905550808273ffffffffffffffffffffffffffffffffffffffff16600073ffffffffffffffffffffffffffffffffffffffff167fddf252ad1be2c89b69c2b068fc378daa952ba7f163c4a11628f55a4df523b3ef60405160405180910390a4611ece60008383611b5c565b5050565b6000808273ffffffffffffffffffffffffffffffffffffffff163b119050919050565b6000604051905090565b600080fd5b600080fd5b60007fffffffff0000000000000000000000000000000000000000000000000000000082169050919050565b611f3e81611f09565b8114611f4957600080fd5b50565b600081359050611f5b81611f35565b92915050565b600060208284031215611f7757611f76611eff565b5b6000611f8584828501611f4c565b91505092915050565b60008115159050919050565b611fa381611f8e565b82525050565b6000602082019050611fbe6000830184611f9a565b92915050565b600081519050919050565b600082825260208201905092915050565b60005b83811015611ffe578082015181840152602081019050611fe3565b8381111561200d576000848401525b50505050565b6000601f19601f8301169050919050565b600061202f82611fc4565b6120398185611fcf565b9350612049818560208601611fe0565b61205281612013565b840191505092915050565b600060208201905081810360008301526120778184612024565b905092915050565b6000819050919050565b6120928161207f565b811461209d57600080fd5b50565b6000813590506120af81612089565b92915050565b6000602082840312156120cb576120ca611eff565b5b60006120d9848285016120a0565b91505092915050565b600073ffffffffffffffffffffffffffffffffffffffff82169050919050565b600061210d826120e2565b9050919050565b61211d81612102565b82525050565b60006020820190506121386000830184612114565b92915050565b61214781612102565b811461215257600080fd5b50565b6000813590506121648161213e565b92915050565b6000806040838503121561218157612180611eff565b5b600061218f85828601612155565b92505060206121a0858286016120a0565b9150509250929050565b6000806000606084860312156121c3576121c2611eff565b5b60006121d186828701612155565b93505060206121e286828701612155565b92505060406121f3868287016120a0565b9150509250925092565b600080fd5b600080fd5b7f4e487b7100000000000000000000000000000000000000000000000000000000600052604160045260246000fd5b61223f82612013565b810181811067ffffffffffffffff8211171561225e5761225d612207565b5b80604052505050565b6000612271611ef5565b905061227d8282612236565b919050565b600067ffffffffffffffff82111561229d5761229c612207565b5b6122a682612013565b9050602081019050919050565b82818337600083830152505050565b60006122d56122d084612282565b612267565b9050828152602081018484840111156122f1576122f0612202565b5b6122fc8482856122b3565b509392505050565b600082601f830112612319576123186121fd565b5b81356123298482602086016122c2565b91505092915050565b60006020828403121561234857612347611eff565b5b600082013567ffffffffffffffff81111561236657612365611f04565b5b61237284828501612304565b91505092915050565b6123848161207f565b82525050565b600060208201905061239f600083018461237b565b92915050565b6000602082840312156123bb576123ba611eff565b5b60006123c984828501612155565b91505092915050565b6000819050919050565b60006123f76123f26123ed846120e2565b6123d2565b6120e2565b9050919050565b6000612409826123dc565b9050919050565b600061241b826123fe565b9050919050565b61242b81612410565b82525050565b60006020820190506124466000830184612422565b92915050565b61245581611f8e565b811461246057600080fd5b50565b6000813590506124728161244c565b92915050565b6000806040838503121561248f5761248e611eff565b5b600061249d85828601612155565b92505060206124ae85828601612463565b9150509250929050565b600067ffffffffffffffff8211156124d3576124d2612207565b5b6124dc82612013565b9050602081019050919050565b60006124fc6124f7846124b8565b612267565b90508281526020810184848401111561251857612517612202565b5b6125238482856122b3565b509392505050565b600082601f8301126125405761253f6121fd565b5b81356125508482602086016124e9565b91505092915050565b6000806000806080858703121561257357612572611eff565b5b600061258187828801612155565b945050602061259287828801612155565b93505060406125a3878288016120a0565b925050606085013567ffffffffffffffff8111156125c4576125c3611f04565b5b6125d08782880161252b565b91505092959194509250565b600080604083850312156125f3576125f2611eff565b5b600061260185828601612155565b925050602061261285828601612155565b9150509250929050565b7f4e487b7100000000000000000000000000000000000000000000000000000000600052602260045260246000fd5b6000600282049050600182168061266357607f821691505b602082108114156126775761267661261c565b5b50919050565b7f4552433732313a20617070726f76616c20746f2063757272656e74206f776e6560008201527f7200000000000000000000000000000000000000000000000000000000000000602082015250565b60006126d9602183611fcf565b91506126e48261267d565b604082019050919050565b60006020820190508181036000830152612708816126cc565b9050919050565b7f4552433732313a20617070726f76652063616c6c6572206973206e6f7420746f60008201527f6b656e206f776e6572206e6f7220617070726f76656420666f7220616c6c0000602082015250565b600061276b603e83611fcf565b91506127768261270f565b604082019050919050565b6000602082019050818103600083015261279a8161275e565b9050919050565b7f4e487b7100000000000000000000000000000000000000000000000000000000600052601160045260246000fd5b60006127db8261207f565b91506127e68361207f565b9250827fffffffffffffffffffffffffffffffffffffffffffffffffffffffffffffffff0382111561281b5761281a6127a1565b5b828201905092915050565b7f4552433732313a2063616c6c6572206973206e6f7420746f6b656e206f776e6560008201527f72206e6f7220617070726f766564000000000000000000000000000000000000602082015250565b6000612882602e83611fcf565b915061288d82612826565b604082019050919050565b600060208201905081810360008301526128b181612875565b9050919050565b600081905092915050565b60006128ce82611fc4565b6128d881856128b8565b93506128e8818560208601611fe0565b80840191505092915050565b600061290082846128c3565b915081905092915050565b600061291782856128c3565b915061292382846128c3565b91508190509392505050565b7f4552433732313a20696e76616c696420746f6b656e2049440000000000000000600082015250565b6000612965601883611fcf565b91506129708261292f565b602082019050919050565b6000602082019050818103600083015261299481612958565b9050919050565b7f4552433732313a2061646472657373207a65726f206973206e6f74206120766160008201527f6c6964206f776e65720000000000000000000000000000000000000000000000602082015250565b60006129f7602983611fcf565b9150612a028261299b565b604082019050919050565b60006020820190508181036000830152612a26816129ea565b9050919050565b7f4552433732314d657461646174613a2055524920717565727920666f72206e6f60008201527f6e6578697374656e7420746f6b656e0000000000000000000000000000000000602082015250565b6000612a89602f83611fcf565b9150612a9482612a2d565b604082019050919050565b60006020820190508181036000830152612ab881612a7c565b9050919050565b7f226e616d65223a20220000000000000000000000000000000000000000000000600082015250565b6000612af56009836128b8565b9150612b0082612abf565b600982019050919050565b7f2200000000000000000000000000000000000000000000000000000000000000600082015250565b6000612b416001836128b8565b9150612b4c82612b0b565b600182019050919050565b6000612b6282612ae8565b9150612b6e82846128c3565b9150612b7982612b34565b915081905092915050565b7f22696d616765223a202200000000000000000000000000000000000000000000600082015250565b6000612bba600a836128b8565b9150612bc582612b84565b600a82019050919050565b6000612bdb82612bad565b9150612be782846128c3565b9150612bf282612b34565b915081905092915050565b7f7b00000000000000000000000000000000000000000000000000000000000000600082015250565b6000612c336001836128b8565b9150612c3e82612bfd565b600182019050919050565b7f2c00000000000000000000000000000000000000000000000000000000000000600082015250565b6000612c7f6001836128b8565b9150612c8a82612c49565b600182019050919050565b7f7d00000000000000000000000000000000000000000000000000000000000000600082015250565b6000612ccb6001836128b8565b9150612cd682612c95565b600182019050919050565b6000612cec82612c26565b9150612cf882886128c3565b9150612d0382612c72565b9150612d0f82876128c3565b9150612d1a82612c72565b9150612d2682866128c3565b9150612d3182612c72565b9150612d3d82856128c3565b9150612d4882612c72565b9150612d5482846128c3565b9150612d5f82612cbe565b91508190509695505050505050565b7f4f776e61626c653a206e6577206f776e657220697320746865207a65726f206160008201527f6464726573730000000000000000000000000000000000000000000000000000602082015250565b6000612dca602683611fcf565b9150612dd582612d6e565b604082019050919050565b60006020820190508181036000830152612df981612dbd565b9050919050565b7f4e487b7100000000000000000000000000000000000000000000000000000000600052601260045260246000fd5b6000612e3a8261207f565b9150612e458361207f565b925082612e5557612e54612e00565b5b828204905092915050565b6000612e6b8261207f565b9150612e768361207f565b9250817fffffffffffffffffffffffffffffffffffffffffffffffffffffffffffffffff0483118215151615612eaf57612eae6127a1565b5b828202905092915050565b7f4552433732313a207472616e736665722066726f6d20696e636f72726563742060008201527f6f776e6572000000000000000000000000000000000000000000000000000000602082015250565b6000612f16602583611fcf565b9150612f2182612eba565b604082019050919050565b60006020820190508181036000830152612f4581612f09565b9050919050565b7f4552433732313a207472616e7366657220746f20746865207a65726f2061646460008201527f7265737300000000000000000000000000000000000000000000000000000000602082015250565b6000612fa8602483611fcf565b9150612fb382612f4c565b604082019050919050565b60006020820190508181036000830152612fd781612f9b565b9050919050565b6000612fe98261207f565b9150612ff48361207f565b925082821015613007576130066127a1565b5b828203905092915050565b7f4f776e61626c653a2063616c6c6572206973206e6f7420746865206f776e6572600082015250565b6000613048602083611fcf565b915061305382613012565b602082019050919050565b600060208201905081810360008301526130778161303b565b9050919050565b7f4552433732313a20617070726f766520746f2063616c6c657200000000000000600082015250565b60006130b4601983611fcf565b91506130bf8261307e565b602082019050919050565b600060208201905081810360008301526130e3816130a7565b9050919050565b7f4552433732313a207472616e7366657220746f206e6f6e20455243373231526560008201527f63656976657220696d706c656d656e7465720000000000000000000000000000602082015250565b6000613146603283611fcf565b9150613151826130ea565b604082019050919050565b6000602082019050818103600083015261317581613139565b9050919050565b600069ffffffffffffffffffff82169050919050565b61319b8161317c565b81146131a657600080fd5b50565b6000815190506131b881613192565b92915050565b6000819050919050565b6131d1816131be565b81146131dc57600080fd5b50565b6000815190506131ee816131c8565b92915050565b60008151905061320381612089565b92915050565b600080600080600060a0868803121561322557613224611eff565b5b6000613233888289016131a9565b9550506020613244888289016131df565b9450506040613255888289016131f4565b9350506060613266888289016131f4565b9250506080613277888289016131a9565b9150509295509295909350565b600061328f826131be565b915061329a836131be565b9250827f7fffffffffffffffffffffffffffffffffffffffffffffffffffffffffffffff04821160008413600084131616156132d9576132d86127a1565b5b817f80000000000000000000000000000000000000000000000000000000000000000583126000841260008413161615613316576133156127a1565b5b827f80000000000000000000000000000000000000000000000000000000000000000582126000841360008412161615613353576133526127a1565b5b827f7fffffffffffffffffffffffffffffffffffffffffffffffffffffffffffffff05821260008412600084121616156133905761338f6127a1565b5b828202905092915050565b600081519050919050565b600082825260208201905092915050565b60006133c28261339b565b6133cc81856133a6565b93506133dc818560208601611fe0565b6133e581612013565b840191505092915050565b60006080820190506134056000830187612114565b6134126020830186612114565b61341f604083018561237b565b818103606083015261343181846133b7565b905095945050505050565b60008151905061344b81611f35565b92915050565b60006020828403121561346757613466611eff565b5b60006134758482850161343c565b91505092915050565b7f4552433732313a206d696e7420746f20746865207a65726f2061646472657373600082015250565b60006134b4602083611fcf565b91506134bf8261347e565b602082019050919050565b600060208201905081810360008301526134e3816134a7565b9050919050565b7f4552433732313a20746f6b656e20616c7265616479206d696e74656400000000600082015250565b6000613520601c83611fcf565b915061352b826134ea565b602082019050919050565b6000602082019050818103600083015261354f81613513565b905091905056fe226465736372697074696f6e223a202254686973204e4654206368616e676573206d6f6f64206261736564206f6620686f77206d7563682065746820796f752067697665206974224142434445464748494a4b4c4d4e4f505152535455565758595a6162636465666768696a6b6c6d6e6f707172737475767778797a303132333435363738392b2f2261747472696275746573223a20225b7b2274726169745f74797065223a202266726573686e657373222c202276616c7565223a203130307d5d22a2646970667358221220c8c02f97693e7ef954a453a696020e54fbd7c2c0e7876b2623373f0eb0951c6a64736f6c634300080800334142434445464748494a4b4c4d4e4f505152535455565758595a6162636465666768696a6b6c6d6e6f707172737475767778797a303132333435363738392b2f",
  "devdoc": {
    "kind": "dev",
    "methods": {
      "approve(address,uint256)": {
        "details": "See {IERC721-approve}."
      },
      "balanceOf(address)": {
        "details": "See {IERC721-balanceOf}."
      },
      "getApproved(uint256)": {
        "details": "See {IERC721-getApproved}."
      },
      "isApprovedForAll(address,address)": {
        "details": "See {IERC721-isApprovedForAll}."
      },
      "name()": {
        "details": "See {IERC721Metadata-name}."
      },
      "owner()": {
        "details": "Returns the address of the current owner."
      },
      "ownerOf(uint256)": {
        "details": "See {IERC721-ownerOf}."
      },
      "renounceOwnership()": {
        "details": "Leaves the contract without owner. It will not be possible to call `onlyOwner` functions anymore. Can only be called by the current owner. NOTE: Renouncing ownership will leave the contract without an owner, thereby removing any functionality that is only available to the owner."
      },
      "safeTransferFrom(address,address,uint256)": {
        "details": "See {IERC721-safeTransferFrom}."
      },
      "safeTransferFrom(address,address,uint256,bytes)": {
        "details": "See {IERC721-safeTransferFrom}."
      },
      "setApprovalForAll(address,bool)": {
        "details": "See {IERC721-setApprovalForAll}."
      },
      "supportsInterface(bytes4)": {
        "details": "See {IERC165-supportsInterface}."
      },
      "symbol()": {
        "details": "See {IERC721Metadata-symbol}."
      },
      "tokenURI(uint256)": {
        "details": "See {IERC721Metadata-tokenURI}."
      },
      "transferFrom(address,address,uint256)": {
        "details": "See {IERC721-transferFrom}."
      },
      "transferOwnership(address)": {
        "details": "Transfers ownership of the contract to a new account (`newOwner`). Can only be called by the current owner."
      }
    },
    "version": 1
  },
  "userdoc": {
    "kind": "user",
    "methods": {},
    "version": 1
  },
  "storageLayout": {
    "storage": [
      {
        "astId": 184,
        "contract": "contracts/DynamicNft.sol:DynamicNft",
        "label": "_name",
        "offset": 0,
        "slot": "0",
        "type": "t_string_storage"
      },
      {
        "astId": 186,
        "contract": "contracts/DynamicNft.sol:DynamicNft",
        "label": "_symbol",
        "offset": 0,
        "slot": "1",
        "type": "t_string_storage"
      },
      {
        "astId": 190,
        "contract": "contracts/DynamicNft.sol:DynamicNft",
        "label": "_owners",
        "offset": 0,
        "slot": "2",
        "type": "t_mapping(t_uint256,t_address)"
      },
      {
        "astId": 194,
        "contract": "contracts/DynamicNft.sol:DynamicNft",
        "label": "_balances",
        "offset": 0,
        "slot": "3",
        "type": "t_mapping(t_address,t_uint256)"
      },
      {
        "astId": 198,
        "contract": "contracts/DynamicNft.sol:DynamicNft",
        "label": "_tokenApprovals",
        "offset": 0,
        "slot": "4",
        "type": "t_mapping(t_uint256,t_address)"
      },
      {
        "astId": 204,
        "contract": "contracts/DynamicNft.sol:DynamicNft",
        "label": "_operatorApprovals",
        "offset": 0,
        "slot": "5",
        "type": "t_mapping(t_address,t_mapping(t_address,t_bool))"
      },
      {
        "astId": 53,
        "contract": "contracts/DynamicNft.sol:DynamicNft",
        "label": "_owner",
        "offset": 0,
        "slot": "6",
        "type": "t_address"
      },
      {
        "astId": 1895,
        "contract": "contracts/DynamicNft.sol:DynamicNft",
        "label": "s_tokenCounter",
        "offset": 0,
        "slot": "7",
        "type": "t_uint256"
      },
      {
        "astId": 1897,
        "contract": "contracts/DynamicNft.sol:DynamicNft",
        "label": "i_lowImageUri",
        "offset": 0,
        "slot": "8",
        "type": "t_string_storage"
      },
      {
        "astId": 1899,
        "contract": "contracts/DynamicNft.sol:DynamicNft",
        "label": "i_highImageUri",
        "offset": 0,
        "slot": "9",
        "type": "t_string_storage"
      },
      {
        "astId": 1902,
        "contract": "contracts/DynamicNft.sol:DynamicNft",
        "label": "i_priceFeed",
        "offset": 0,
        "slot": "10",
        "type": "t_contract(AggregatorV3Interface)45"
      },
      {
        "astId": 1906,
        "contract": "contracts/DynamicNft.sol:DynamicNft",
        "label": "s_tokenIdToHighValue",
        "offset": 0,
        "slot": "11",
        "type": "t_mapping(t_uint256,t_uint256)"
      }
    ],
    "types": {
      "t_address": {
        "encoding": "inplace",
        "label": "address",
        "numberOfBytes": "20"
      },
      "t_bool": {
        "encoding": "inplace",
        "label": "bool",
        "numberOfBytes": "1"
      },
      "t_contract(AggregatorV3Interface)45": {
        "encoding": "inplace",
        "label": "contract AggregatorV3Interface",
        "numberOfBytes": "20"
      },
      "t_mapping(t_address,t_bool)": {
        "encoding": "mapping",
        "key": "t_address",
        "label": "mapping(address => bool)",
        "numberOfBytes": "32",
        "value": "t_bool"
      },
      "t_mapping(t_address,t_mapping(t_address,t_bool))": {
        "encoding": "mapping",
        "key": "t_address",
        "label": "mapping(address => mapping(address => bool))",
        "numberOfBytes": "32",
        "value": "t_mapping(t_address,t_bool)"
      },
      "t_mapping(t_address,t_uint256)": {
        "encoding": "mapping",
        "key": "t_address",
        "label": "mapping(address => uint256)",
        "numberOfBytes": "32",
        "value": "t_uint256"
      },
      "t_mapping(t_uint256,t_address)": {
        "encoding": "mapping",
        "key": "t_uint256",
        "label": "mapping(uint256 => address)",
        "numberOfBytes": "32",
        "value": "t_address"
      },
      "t_mapping(t_uint256,t_uint256)": {
        "encoding": "mapping",
        "key": "t_uint256",
        "label": "mapping(uint256 => uint256)",
        "numberOfBytes": "32",
        "value": "t_uint256"
      },
      "t_string_storage": {
        "encoding": "bytes",
        "label": "string",
        "numberOfBytes": "32"
      },
      "t_uint256": {
        "encoding": "inplace",
        "label": "uint256",
        "numberOfBytes": "32"
      }
    }
  }
}