{
  "_format": "hh-sol-artifact-1",
  "contractName": "RandomIpfsNft",
  "sourceName": "contracts/RandomIpfsNft.sol",
  "abi": [
    {
      "inputs": [
        {
          "internalType": "address",
          "name": "vrfCoordinatorV2Addr",
          "type": "address"
        },
        {
          "internalType": "uint64",
          "name": "subscriptionId",
          "type": "uint64"
        },
        {
          "internalType": "bytes32",
          "name": "gasLane",
          "type": "bytes32"
        },
        {
          "internalType": "uint32",
          "name": "callbackGasLimit",
          "type": "uint32"
        },
        {
          "internalType": "uint256",
          "name": "mintFee",
          "type": "uint256"
        },
        {
          "internalType": "string[3]",
          "name": "dogTokenUris",
          "type": "string[3]"
        }
      ],
      "stateMutability": "nonpayable",
      "type": "constructor"
    },
    {
      "inputs": [
        {
          "internalType": "address",
          "name": "have",
          "type": "address"
        },
        {
          "internalType": "address",
          "name": "want",
          "type": "address"
        }
      ],
      "name": "OnlyCoordinatorCanFulfill",
      "type": "error"
    },
    {
      "inputs": [],
      "name": "RandomIpfsNft__NeedMoreEthsSent",
      "type": "error"
    },
    {
      "inputs": [],
      "name": "RandomIpfsNft__RangeOutOfBounds",
      "type": "error"
    },
    {
      "inputs": [],
      "name": "RandomIpfsNft__TransferFailed",
      "type": "error"
    },
    {
      "anonymous": false,
      "inputs": [
        {
          "indexed": true,
          "internalType": "address",
          "name": "owner",
          "type": "address"
        },
        {
          "indexed": true,
          "internalType": "address",
          "name": "approved",
          "type": "address"
        },
        {
          "indexed": true,
          "internalType": "uint256",
          "name": "tokenId",
          "type": "uint256"
        }
      ],
      "name": "Approval",
      "type": "event"
    },
    {
      "anonymous": false,
      "inputs": [
        {
          "indexed": true,
          "internalType": "address",
          "name": "owner",
          "type": "address"
        },
        {
          "indexed": true,
          "internalType": "address",
          "name": "operator",
          "type": "address"
        },
        {
          "indexed": false,
          "internalType": "bool",
          "name": "approved",
          "type": "bool"
        }
      ],
      "name": "ApprovalForAll",
      "type": "event"
    },
    {
      "anonymous": false,
      "inputs": [
        {
          "indexed": false,
          "internalType": "enum RandomIpfsNft.Breed",
          "name": "dogBreed",
          "type": "uint8"
        },
        {
          "indexed": false,
          "internalType": "address",
          "name": "minter",
          "type": "address"
        }
      ],
      "name": "NftMinted",
      "type": "event"
    },
    {
      "anonymous": false,
      "inputs": [
        {
          "indexed": true,
          "internalType": "uint256",
          "name": "requestId",
          "type": "uint256"
        },
        {
          "indexed": false,
          "internalType": "address",
          "name": "requester",
          "type": "address"
        }
      ],
      "name": "NftRequested",
      "type": "event"
    },
    {
      "anonymous": false,
      "inputs": [
        {
          "indexed": true,
          "internalType": "address",
          "name": "previousOwner",
          "type": "address"
        },
        {
          "indexed": true,
          "internalType": "address",
          "name": "newOwner",
          "type": "address"
        }
      ],
      "name": "OwnershipTransferred",
      "type": "event"
    },
    {
      "anonymous": false,
      "inputs": [
        {
          "indexed": true,
          "internalType": "address",
          "name": "from",
          "type": "address"
        },
        {
          "indexed": true,
          "internalType": "address",
          "name": "to",
          "type": "address"
        },
        {
          "indexed": true,
          "internalType": "uint256",
          "name": "tokenId",
          "type": "uint256"
        }
      ],
      "name": "Transfer",
      "type": "event"
    },
    {
      "inputs": [
        {
          "internalType": "address",
          "name": "to",
          "type": "address"
        },
        {
          "internalType": "uint256",
          "name": "tokenId",
          "type": "uint256"
        }
      ],
      "name": "approve",
      "outputs": [],
      "stateMutability": "nonpayable",
      "type": "function"
    },
    {
      "inputs": [
        {
          "internalType": "address",
          "name": "owner",
          "type": "address"
        }
      ],
      "name": "balanceOf",
      "outputs": [
        {
          "internalType": "uint256",
          "name": "",
          "type": "uint256"
        }
      ],
      "stateMutability": "view",
      "type": "function"
    },
    {
      "inputs": [
        {
          "internalType": "uint256",
          "name": "tokenId",
          "type": "uint256"
        }
      ],
      "name": "getApproved",
      "outputs": [
        {
          "internalType": "address",
          "name": "",
          "type": "address"
        }
      ],
      "stateMutability": "view",
      "type": "function"
    },
    {
      "inputs": [
        {
          "internalType": "uint256",
          "name": "moddedRng",
          "type": "uint256"
        }
      ],
      "name": "getBreedFromModdedRng",
      "outputs": [
        {
          "internalType": "enum RandomIpfsNft.Breed",
          "name": "",
          "type": "uint8"
        }
      ],
      "stateMutability": "pure",
      "type": "function"
    },
    {
      "inputs": [],
      "name": "getChangeArray",
      "outputs": [
        {
          "internalType": "uint256[3]",
          "name": "",
          "type": "uint256[3]"
        }
      ],
      "stateMutability": "pure",
      "type": "function"
    },
    {
      "inputs": [
        {
          "internalType": "uint256",
          "name": "index",
          "type": "uint256"
        }
      ],
      "name": "getDogTokenUris",
      "outputs": [
        {
          "internalType": "string",
          "name": "",
          "type": "string"
        }
      ],
      "stateMutability": "view",
      "type": "function"
    },
    {
      "inputs": [],
      "name": "getMintFee",
      "outputs": [
        {
          "internalType": "uint256",
          "name": "",
          "type": "uint256"
        }
      ],
      "stateMutability": "view",
      "type": "function"
    },
    {
      "inputs": [],
      "name": "getTokenCounter",
      "outputs": [
        {
          "internalType": "uint256",
          "name": "",
          "type": "uint256"
        }
      ],
      "stateMutability": "view",
      "type": "function"
    },
    {
      "inputs": [
        {
          "internalType": "address",
          "name": "owner",
          "type": "address"
        },
        {
          "internalType": "address",
          "name": "operator",
          "type": "address"
        }
      ],
      "name": "isApprovedForAll",
      "outputs": [
        {
          "internalType": "bool",
          "name": "",
          "type": "bool"
        }
      ],
      "stateMutability": "view",
      "type": "function"
    },
    {
      "inputs": [],
      "name": "name",
      "outputs": [
        {
          "internalType": "string",
          "name": "",
          "type": "string"
        }
      ],
      "stateMutability": "view",
      "type": "function"
    },
    {
      "inputs": [],
      "name": "owner",
      "outputs": [
        {
          "internalType": "address",
          "name": "",
          "type": "address"
        }
      ],
      "stateMutability": "view",
      "type": "function"
    },
    {
      "inputs": [
        {
          "internalType": "uint256",
          "name": "tokenId",
          "type": "uint256"
        }
      ],
      "name": "ownerOf",
      "outputs": [
        {
          "internalType": "address",
          "name": "",
          "type": "address"
        }
      ],
      "stateMutability": "view",
      "type": "function"
    },
    {
      "inputs": [
        {
          "internalType": "uint256",
          "name": "requestId",
          "type": "uint256"
        },
        {
          "internalType": "uint256[]",
          "name": "randomWords",
          "type": "uint256[]"
        }
      ],
      "name": "rawFulfillRandomWords",
      "outputs": [],
      "stateMutability": "nonpayable",
      "type": "function"
    },
    {
      "inputs": [],
      "name": "renounceOwnership",
      "outputs": [],
      "stateMutability": "nonpayable",
      "type": "function"
    },
    {
      "inputs": [],
      "name": "requestNft",
      "outputs": [
        {
          "internalType": "uint256",
          "name": "requestId",
          "type": "uint256"
        }
      ],
      "stateMutability": "payable",
      "type": "function"
    },
    {
      "inputs": [
        {
          "internalType": "address",
          "name": "from",
          "type": "address"
        },
        {
          "internalType": "address",
          "name": "to",
          "type": "address"
        },
        {
          "internalType": "uint256",
          "name": "tokenId",
          "type": "uint256"
        }
      ],
      "name": "safeTransferFrom",
      "outputs": [],
      "stateMutability": "nonpayable",
      "type": "function"
    },
    {
      "inputs": [
        {
          "internalType": "address",
          "name": "from",
          "type": "address"
        },
        {
          "internalType": "address",
          "name": "to",
          "type": "address"
        },
        {
          "internalType": "uint256",
          "name": "tokenId",
          "type": "uint256"
        },
        {
          "internalType": "bytes",
          "name": "data",
          "type": "bytes"
        }
      ],
      "name": "safeTransferFrom",
      "outputs": [],
      "stateMutability": "nonpayable",
      "type": "function"
    },
    {
      "inputs": [
        {
          "internalType": "address",
          "name": "operator",
          "type": "address"
        },
        {
          "internalType": "bool",
          "name": "approved",
          "type": "bool"
        }
      ],
      "name": "setApprovalForAll",
      "outputs": [],
      "stateMutability": "nonpayable",
      "type": "function"
    },
    {
      "inputs": [
        {
          "internalType": "bytes4",
          "name": "interfaceId",
          "type": "bytes4"
        }
      ],
      "name": "supportsInterface",
      "outputs": [
        {
          "internalType": "bool",
          "name": "",
          "type": "bool"
        }
      ],
      "stateMutability": "view",
      "type": "function"
    },
    {
      "inputs": [],
      "name": "symbol",
      "outputs": [
        {
          "internalType": "string",
          "name": "",
          "type": "string"
        }
      ],
      "stateMutability": "view",
      "type": "function"
    },
    {
      "inputs": [
        {
          "internalType": "uint256",
          "name": "tokenId",
          "type": "uint256"
        }
      ],
      "name": "tokenURI",
      "outputs": [
        {
          "internalType": "string",
          "name": "",
          "type": "string"
        }
      ],
      "stateMutability": "view",
      "type": "function"
    },
    {
      "inputs": [
        {
          "internalType": "address",
          "name": "from",
          "type": "address"
        },
        {
          "internalType": "address",
          "name": "to",
          "type": "address"
        },
        {
          "internalType": "uint256",
          "name": "tokenId",
          "type": "uint256"
        }
      ],
      "name": "transferFrom",
      "outputs": [],
      "stateMutability": "nonpayable",
      "type": "function"
    },
    {
      "inputs": [
        {
          "internalType": "address",
          "name": "newOwner",
          "type": "address"
        }
      ],
      "name": "transferOwnership",
      "outputs": [],
      "stateMutability": "nonpayable",
      "type": "function"
    },
    {
      "inputs": [],
      "name": "withdraw",
      "outputs": [],
      "stateMutability": "nonpayable",
      "type": "function"
    }
  ],
  "bytecode": "0x6101206040523480156200001257600080fd5b506040516200432338038062004323833981810160405281019062000038919062000809565b6040518060400160405280600f81526020017f52616e646f6d2049504653204e465400000000000000000000000000000000008152506040518060400160405280600381526020017f52494e0000000000000000000000000000000000000000000000000000000000815250878073ffffffffffffffffffffffffffffffffffffffff1660808173ffffffffffffffffffffffffffffffffffffffff1660601b81525050508160009080519060200190620000f59291906200029c565b5080600190805190602001906200010e9291906200029c565b5050506200013162000125620001ce60201b60201c565b620001d660201b60201c565b8573ffffffffffffffffffffffffffffffffffffffff1660a08173ffffffffffffffffffffffffffffffffffffffff1660601b815250508467ffffffffffffffff1660c08167ffffffffffffffff1660c01b815250508360e081815250508263ffffffff166101008163ffffffff1660e01b8152505080600a906003620001ba9291906200032d565b5081600b8190555050505050505062000929565b600033905090565b6000600760009054906101000a900473ffffffffffffffffffffffffffffffffffffffff16905081600760006101000a81548173ffffffffffffffffffffffffffffffffffffffff021916908373ffffffffffffffffffffffffffffffffffffffff1602179055508173ffffffffffffffffffffffffffffffffffffffff168173ffffffffffffffffffffffffffffffffffffffff167f8be0079c531659141344cd1fd0a4f28419497f9722a3daafe3b4186f6b6457e060405160405180910390a35050565b828054620002aa90620008f3565b90600052602060002090601f016020900481019282620002ce57600085556200031a565b82601f10620002e957805160ff19168380011785556200031a565b828001600101855582156200031a579182015b8281111562000319578251825591602001919060010190620002fc565b5b50905062000329919062000394565b5090565b82805482825590600052602060002090810192821562000381579160200282015b82811115620003805782518290805190602001906200036f9291906200029c565b50916020019190600101906200034e565b5b509050620003909190620003b3565b5090565b5b80821115620003af57600081600090555060010162000395565b5090565b5b80821115620003d75760008181620003cd9190620003db565b50600101620003b4565b5090565b508054620003e990620008f3565b6000825580601f10620003fd57506200041e565b601f0160209004906000526020600020908101906200041d919062000394565b5b50565b6000604051905090565b600080fd5b600080fd5b600073ffffffffffffffffffffffffffffffffffffffff82169050919050565b6000620004628262000435565b9050919050565b620004748162000455565b81146200048057600080fd5b50565b600081519050620004948162000469565b92915050565b600067ffffffffffffffff82169050919050565b620004b9816200049a565b8114620004c557600080fd5b50565b600081519050620004d981620004ae565b92915050565b6000819050919050565b620004f481620004df565b81146200050057600080fd5b50565b6000815190506200051481620004e9565b92915050565b600063ffffffff82169050919050565b62000535816200051a565b81146200054157600080fd5b50565b60008151905062000555816200052a565b92915050565b6000819050919050565b62000570816200055b565b81146200057c57600080fd5b50565b600081519050620005908162000565565b92915050565b600080fd5b6000601f19601f8301169050919050565b7f4e487b7100000000000000000000000000000000000000000000000000000000600052604160045260246000fd5b620005e6826200059b565b810181811067ffffffffffffffff82111715620006085762000607620005ac565b5b80604052505050565b60006200061d62000421565b90506200062b8282620005db565b919050565b600067ffffffffffffffff8211156200064e576200064d620005ac565b5b602082029050919050565b600080fd5b600080fd5b600067ffffffffffffffff821115620006815762000680620005ac565b5b6200068c826200059b565b9050602081019050919050565b60005b83811015620006b95780820151818401526020810190506200069c565b83811115620006c9576000848401525b50505050565b6000620006e6620006e08462000663565b62000611565b9050828152602081018484840111156200070557620007046200065e565b5b6200071284828562000699565b509392505050565b600082601f83011262000732576200073162000596565b5b815162000744848260208601620006cf565b91505092915050565b6000620007646200075e8462000630565b62000611565b9050806020840283018581111562000781576200078062000659565b5b835b81811015620007cf57805167ffffffffffffffff811115620007aa57620007a962000596565b5b808601620007b989826200071a565b8552602085019450505060208101905062000783565b5050509392505050565b600082601f830112620007f157620007f062000596565b5b6003620008008482856200074d565b91505092915050565b60008060008060008060c087890312156200082957620008286200042b565b5b60006200083989828a0162000483565b96505060206200084c89828a01620004c8565b95505060406200085f89828a0162000503565b94505060606200087289828a0162000544565b93505060806200088589828a016200057f565b92505060a087015167ffffffffffffffff811115620008a957620008a862000430565b5b620008b789828a01620007d9565b9150509295509295509295565b7f4e487b7100000000000000000000000000000000000000000000000000000000600052602260045260246000fd5b600060028204905060018216806200090c57607f821691505b60208210811415620009235762000922620008c4565b5b50919050565b60805160601c60a05160601c60c05160c01c60e0516101005160e01c6139a2620009816000396000610f2101526000610edd01526000610efe01526000610ea101526000818161087901526108cd01526139a26000f3fe60806040526004361061014b5760003560e01c8063715018a6116100b6578063aa1524911161006f578063aa15249114610490578063b88d4fde146104ae578063c87b56dd146104d7578063d4d95b7f14610514578063e985e9c51461053f578063f2fde38b1461057c5761014b565b8063715018a6146103925780637a5caab3146103a95780638da5cb5b146103d457806395d89b41146103ff578063a22cb4651461042a578063a51cccf3146104535761014b565b80633af25975116101085780633af25975146102705780633ccfd60b146102ad57806342842e0e146102c45780636352211e146102ed5780636e02007d1461032a57806370a08231146103555761014b565b806301ffc9a71461015057806306fdde031461018d578063081812fc146101b8578063095ea7b3146101f55780631fe543e31461021e57806323b872dd14610247575b600080fd5b34801561015c57600080fd5b5061017760048036038101906101729190612520565b6105a5565b6040516101849190612568565b60405180910390f35b34801561019957600080fd5b506101a2610687565b6040516101af919061261c565b60405180910390f35b3480156101c457600080fd5b506101df60048036038101906101da9190612674565b610719565b6040516101ec91906126e2565b60405180910390f35b34801561020157600080fd5b5061021c60048036038101906102179190612729565b61075f565b005b34801561022a57600080fd5b50610245600480360381019061024091906128b1565b610877565b005b34801561025357600080fd5b5061026e6004803603810190610269919061290d565b610937565b005b34801561027c57600080fd5b5061029760048036038101906102929190612674565b610997565b6040516102a4919061261c565b60405180910390f35b3480156102b957600080fd5b506102c2610a47565b005b3480156102d057600080fd5b506102eb60048036038101906102e6919061290d565b610afb565b005b3480156102f957600080fd5b50610314600480360381019061030f9190612674565b610b1b565b60405161032191906126e2565b60405180910390f35b34801561033657600080fd5b5061033f610bcd565b60405161034c919061296f565b60405180910390f35b34801561036157600080fd5b5061037c6004803603810190610377919061298a565b610bd7565b604051610389919061296f565b60405180910390f35b34801561039e57600080fd5b506103a7610c8f565b005b3480156103b557600080fd5b506103be610ca3565b6040516103cb919061296f565b60405180910390f35b3480156103e057600080fd5b506103e9610cad565b6040516103f691906126e2565b60405180910390f35b34801561040b57600080fd5b50610414610cd7565b604051610421919061261c565b60405180910390f35b34801561043657600080fd5b50610451600480360381019061044c91906129e3565b610d69565b005b34801561045f57600080fd5b5061047a60048036038101906104759190612674565b610d7f565b6040516104879190612a9a565b60405180910390f35b610498610e61565b6040516104a5919061296f565b60405180910390f35b3480156104ba57600080fd5b506104d560048036038101906104d09190612b6a565b611082565b005b3480156104e357600080fd5b506104fe60048036038101906104f99190612674565b6110e4565b60405161050b919061261c565b60405180910390f35b34801561052057600080fd5b506105296111f7565b6040516105369190612c98565b60405180910390f35b34801561054b57600080fd5b5061056660048036038101906105619190612cb3565b611222565b6040516105739190612568565b60405180910390f35b34801561058857600080fd5b506105a3600480360381019061059e919061298a565b6112b6565b005b60007f80ac58cd000000000000000000000000000000000000000000000000000000007bffffffffffffffffffffffffffffffffffffffffffffffffffffffff1916827bffffffffffffffffffffffffffffffffffffffffffffffffffffffff1916148061067057507f5b5e139f000000000000000000000000000000000000000000000000000000007bffffffffffffffffffffffffffffffffffffffffffffffffffffffff1916827bffffffffffffffffffffffffffffffffffffffffffffffffffffffff1916145b80610680575061067f8261133a565b5b9050919050565b60606000805461069690612d22565b80601f01602080910402602001604051908101604052809291908181526020018280546106c290612d22565b801561070f5780601f106106e45761010080835404028352916020019161070f565b820191906000526020600020905b8154815290600101906020018083116106f257829003601f168201915b5050505050905090565b6000610724826113a4565b6004600083815260200190815260200160002060009054906101000a900473ffffffffffffffffffffffffffffffffffffffff169050919050565b600061076a82610b1b565b90508073ffffffffffffffffffffffffffffffffffffffff168373ffffffffffffffffffffffffffffffffffffffff1614156107db576040517f08c379a00000000000000000000000000000000000000000000000000000000081526004016107d290612dc6565b60405180910390fd5b8073ffffffffffffffffffffffffffffffffffffffff166107fa6113ef565b73ffffffffffffffffffffffffffffffffffffffff1614806108295750610828816108236113ef565b611222565b5b610868576040517f08c379a000000000000000000000000000000000000000000000000000000000815260040161085f90612e58565b60405180910390fd5b61087283836113f7565b505050565b7f000000000000000000000000000000000000000000000000000000000000000073ffffffffffffffffffffffffffffffffffffffff163373ffffffffffffffffffffffffffffffffffffffff161461092957337f00000000000000000000000000000000000000000000000000000000000000006040517f1cf993f4000000000000000000000000000000000000000000000000000000008152600401610920929190612e78565b60405180910390fd5b61093382826114b0565b5050565b6109486109426113ef565b8261164a565b610987576040517f08c379a000000000000000000000000000000000000000000000000000000000815260040161097e90612f13565b60405180910390fd5b6109928383836116df565b505050565b6060600a82815481106109ad576109ac612f33565b5b9060005260206000200180546109c290612d22565b80601f01602080910402602001604051908101604052809291908181526020018280546109ee90612d22565b8015610a3b5780601f10610a1057610100808354040283529160200191610a3b565b820191906000526020600020905b815481529060010190602001808311610a1e57829003601f168201915b50505050509050919050565b610a4f611946565b600047905060003373ffffffffffffffffffffffffffffffffffffffff1682604051610a7a90612f93565b60006040518083038185875af1925050503d8060008114610ab7576040519150601f19603f3d011682016040523d82523d6000602084013e610abc565b606091505b5050905080610af7576040517fca7e25b700000000000000000000000000000000000000000000000000000000815260040160405180910390fd5b5050565b610b1683838360405180602001604052806000815250611082565b505050565b6000806002600084815260200190815260200160002060009054906101000a900473ffffffffffffffffffffffffffffffffffffffff169050600073ffffffffffffffffffffffffffffffffffffffff168173ffffffffffffffffffffffffffffffffffffffff161415610bc4576040517f08c379a0000000000000000000000000000000000000000000000000000000008152600401610bbb90612ff4565b60405180910390fd5b80915050919050565b6000600954905090565b60008073ffffffffffffffffffffffffffffffffffffffff168273ffffffffffffffffffffffffffffffffffffffff161415610c48576040517f08c379a0000000000000000000000000000000000000000000000000000000008152600401610c3f90613086565b60405180910390fd5b600360008373ffffffffffffffffffffffffffffffffffffffff1673ffffffffffffffffffffffffffffffffffffffff168152602001908152602001600020549050919050565b610c97611946565b610ca160006119c4565b565b6000600b54905090565b6000600760009054906101000a900473ffffffffffffffffffffffffffffffffffffffff16905090565b606060018054610ce690612d22565b80601f0160208091040260200160405190810160405280929190818152602001828054610d1290612d22565b8015610d5f5780601f10610d3457610100808354040283529160200191610d5f565b820191906000526020600020905b815481529060010190602001808311610d4257829003601f168201915b5050505050905090565b610d7b610d746113ef565b8383611a8a565b5050565b600080600090506000610d906111f7565b905060005b6003811015610e2957828510158015610dcf5750818160038110610dbc57610dbb612f33565b5b602002015183610dcc91906130d5565b85105b15610df157806002811115610de757610de6612a23565b5b9350505050610e5c565b818160038110610e0457610e03612f33565b5b602002015183610e1491906130d5565b92508080610e219061312b565b915050610d95565b506040517f12806c9d00000000000000000000000000000000000000000000000000000000815260040160405180910390fd5b919050565b6000600b54341015610e9f576040517f1fbddafa00000000000000000000000000000000000000000000000000000000815260040160405180910390fd5b7f000000000000000000000000000000000000000000000000000000000000000073ffffffffffffffffffffffffffffffffffffffff16635d3b1d307f00000000000000000000000000000000000000000000000000000000000000007f000000000000000000000000000000000000000000000000000000000000000060037f000000000000000000000000000000000000000000000000000000000000000060016040518663ffffffff1660e01b8152600401610f629594939291906131ec565b602060405180830381600087803b158015610f7c57600080fd5b505af1158015610f90573d6000803e3d6000fd5b505050506040513d601f19601f82011682018060405250810190610fb49190613254565b9050336008600083815260200190815260200160002060006101000a81548173ffffffffffffffffffffffffffffffffffffffff021916908373ffffffffffffffffffffffffffffffffffffffff160217905550807ff873236e6cc0ecc5be1a9a35c95ee5b8d1ac4cc7bfef0cc5060391d6cc98e26b3360405161103891906126e2565b60405180910390a261107f6040518060400160405280600b81526020017f7265717565737465643a3a00000000000000000000000000000000000000000081525082611bf7565b90565b61109361108d6113ef565b8361164a565b6110d2576040517f08c379a00000000000000000000000000000000000000000000000000000000081526004016110c990612f13565b60405180910390fd5b6110de84848484611c93565b50505050565b60606110ef826113a4565b600060066000848152602001908152602001600020805461110f90612d22565b80601f016020809104026020016040519081016040528092919081815260200182805461113b90612d22565b80156111885780601f1061115d57610100808354040283529160200191611188565b820191906000526020600020905b81548152906001019060200180831161116b57829003601f168201915b505050505090506000611199611cef565b90506000815114156111af5781925050506111f2565b6000825111156111e45780826040516020016111cc9291906132bd565b604051602081830303815290604052925050506111f2565b6111ed84611d06565b925050505b919050565b6111ff6123ef565b6040518060600160405280600a8152602001601e81526020016064815250905090565b6000600560008473ffffffffffffffffffffffffffffffffffffffff1673ffffffffffffffffffffffffffffffffffffffff16815260200190815260200160002060008373ffffffffffffffffffffffffffffffffffffffff1673ffffffffffffffffffffffffffffffffffffffff16815260200190815260200160002060009054906101000a900460ff16905092915050565b6112be611946565b600073ffffffffffffffffffffffffffffffffffffffff168173ffffffffffffffffffffffffffffffffffffffff16141561132e576040517f08c379a000000000000000000000000000000000000000000000000000000000815260040161132590613353565b60405180910390fd5b611337816119c4565b50565b60007f01ffc9a7000000000000000000000000000000000000000000000000000000007bffffffffffffffffffffffffffffffffffffffffffffffffffffffff1916827bffffffffffffffffffffffffffffffffffffffffffffffffffffffff1916149050919050565b6113ad81611d6e565b6113ec576040517f08c379a00000000000000000000000000000000000000000000000000000000081526004016113e390612ff4565b60405180910390fd5b50565b600033905090565b816004600083815260200190815260200160002060006101000a81548173ffffffffffffffffffffffffffffffffffffffff021916908373ffffffffffffffffffffffffffffffffffffffff160217905550808273ffffffffffffffffffffffffffffffffffffffff1661146a83610b1b565b73ffffffffffffffffffffffffffffffffffffffff167f8c5be1e5ebec7d5bd14f71427d1e84f3dd0314c0f7b2291e5b200ac8c7c3b92560405160405180910390a45050565b60006008600084815260200190815260200160002060009054906101000a900473ffffffffffffffffffffffffffffffffffffffff1690506000600954905060016009546114fe91906130d5565b600981905550600060648460008151811061151c5761151b612f33565b5b602002602001015161152e91906133a2565b9050600061153b82610d7f565b90506115478484611dda565b61160983600a8360028111156115605761155f612a23565b5b8154811061157157611570612f33565b5b90600052602060002001805461158690612d22565b80601f01602080910402602001604051908101604052809291908181526020018280546115b290612d22565b80156115ff5780601f106115d4576101008083540402835291602001916115ff565b820191906000526020600020905b8154815290600101906020018083116115e257829003601f168201915b5050505050611df8565b7f8a269f26b688e110e9cbd887d163dab35cae678fa353a0292de532c0cac1ecdc818560405161163a9291906133d3565b60405180910390a1505050505050565b60008061165683610b1b565b90508073ffffffffffffffffffffffffffffffffffffffff168473ffffffffffffffffffffffffffffffffffffffff16148061169857506116978185611222565b5b806116d657508373ffffffffffffffffffffffffffffffffffffffff166116be84610719565b73ffffffffffffffffffffffffffffffffffffffff16145b91505092915050565b8273ffffffffffffffffffffffffffffffffffffffff166116ff82610b1b565b73ffffffffffffffffffffffffffffffffffffffff1614611755576040517f08c379a000000000000000000000000000000000000000000000000000000000815260040161174c9061346e565b60405180910390fd5b600073ffffffffffffffffffffffffffffffffffffffff168273ffffffffffffffffffffffffffffffffffffffff1614156117c5576040517f08c379a00000000000000000000000000000000000000000000000000000000081526004016117bc90613500565b60405180910390fd5b6117d0838383611e6c565b6117db6000826113f7565b6001600360008573ffffffffffffffffffffffffffffffffffffffff1673ffffffffffffffffffffffffffffffffffffffff168152602001908152602001600020600082825461182b9190613520565b925050819055506001600360008473ffffffffffffffffffffffffffffffffffffffff1673ffffffffffffffffffffffffffffffffffffffff168152602001908152602001600020600082825461188291906130d5565b92505081905550816002600083815260200190815260200160002060006101000a81548173ffffffffffffffffffffffffffffffffffffffff021916908373ffffffffffffffffffffffffffffffffffffffff160217905550808273ffffffffffffffffffffffffffffffffffffffff168473ffffffffffffffffffffffffffffffffffffffff167fddf252ad1be2c89b69c2b068fc378daa952ba7f163c4a11628f55a4df523b3ef60405160405180910390a4611941838383611e71565b505050565b61194e6113ef565b73ffffffffffffffffffffffffffffffffffffffff1661196c610cad565b73ffffffffffffffffffffffffffffffffffffffff16146119c2576040517f08c379a00000000000000000000000000000000000000000000000000000000081526004016119b9906135a0565b60405180910390fd5b565b6000600760009054906101000a900473ffffffffffffffffffffffffffffffffffffffff16905081600760006101000a81548173ffffffffffffffffffffffffffffffffffffffff021916908373ffffffffffffffffffffffffffffffffffffffff1602179055508173ffffffffffffffffffffffffffffffffffffffff168173ffffffffffffffffffffffffffffffffffffffff167f8be0079c531659141344cd1fd0a4f28419497f9722a3daafe3b4186f6b6457e060405160405180910390a35050565b8173ffffffffffffffffffffffffffffffffffffffff168373ffffffffffffffffffffffffffffffffffffffff161415611af9576040517f08c379a0000000000000000000000000000000000000000000000000000000008152600401611af09061360c565b60405180910390fd5b80600560008573ffffffffffffffffffffffffffffffffffffffff1673ffffffffffffffffffffffffffffffffffffffff16815260200190815260200160002060008473ffffffffffffffffffffffffffffffffffffffff1673ffffffffffffffffffffffffffffffffffffffff16815260200190815260200160002060006101000a81548160ff0219169083151502179055508173ffffffffffffffffffffffffffffffffffffffff168373ffffffffffffffffffffffffffffffffffffffff167f17307eab39ab6107e8899845ad3d59bd9653f200f220920489ca2b5937696c3183604051611bea9190612568565b60405180910390a3505050565b611c8f8282604051602401611c0d92919061362c565b6040516020818303038152906040527f9710a9d0000000000000000000000000000000000000000000000000000000007bffffffffffffffffffffffffffffffffffffffffffffffffffffffff19166020820180517bffffffffffffffffffffffffffffffffffffffffffffffffffffffff8381831617835250505050611e76565b5050565b611c9e8484846116df565b611caa84848484611e9f565b611ce9576040517f08c379a0000000000000000000000000000000000000000000000000000000008152600401611ce0906136ce565b60405180910390fd5b50505050565b606060405180602001604052806000815250905090565b6060611d11826113a4565b6000611d1b611cef565b90506000815111611d3b5760405180602001604052806000815250611d66565b80611d4584612036565b604051602001611d569291906132bd565b6040516020818303038152906040525b915050919050565b60008073ffffffffffffffffffffffffffffffffffffffff166002600084815260200190815260200160002060009054906101000a900473ffffffffffffffffffffffffffffffffffffffff1673ffffffffffffffffffffffffffffffffffffffff1614159050919050565b611df4828260405180602001604052806000815250612197565b5050565b611e0182611d6e565b611e40576040517f08c379a0000000000000000000000000000000000000000000000000000000008152600401611e3790613760565b60405180910390fd5b80600660008481526020019081526020016000209080519060200190611e67929190612411565b505050565b505050565b505050565b60008151905060006a636f6e736f6c652e6c6f679050602083016000808483855afa5050505050565b6000611ec08473ffffffffffffffffffffffffffffffffffffffff166121f2565b15612029578373ffffffffffffffffffffffffffffffffffffffff1663150b7a02611ee96113ef565b8786866040518563ffffffff1660e01b8152600401611f0b94939291906137d5565b602060405180830381600087803b158015611f2557600080fd5b505af1925050508015611f5657506040513d601f19601f82011682018060405250810190611f539190613836565b60015b611fd9573d8060008114611f86576040519150601f19603f3d011682016040523d82523d6000602084013e611f8b565b606091505b50600081511415611fd1576040517f08c379a0000000000000000000000000000000000000000000000000000000008152600401611fc8906136ce565b60405180910390fd5b805181602001fd5b63150b7a0260e01b7bffffffffffffffffffffffffffffffffffffffffffffffffffffffff1916817bffffffffffffffffffffffffffffffffffffffffffffffffffffffff19161491505061202e565b600190505b949350505050565b6060600082141561207e576040518060400160405280600181526020017f30000000000000000000000000000000000000000000000000000000000000008152509050612192565b600082905060005b600082146120b05780806120999061312b565b915050600a826120a99190613863565b9150612086565b60008167ffffffffffffffff8111156120cc576120cb61276e565b5b6040519080825280601f01601f1916602001820160405280156120fe5781602001600182028036833780820191505090505b5090505b6000851461218b576001826121179190613520565b9150600a8561212691906133a2565b603061213291906130d5565b60f81b81838151811061214857612147612f33565b5b60200101907effffffffffffffffffffffffffffffffffffffffffffffffffffffffffffff1916908160001a905350600a856121849190613863565b9450612102565b8093505050505b919050565b6121a18383612215565b6121ae6000848484611e9f565b6121ed576040517f08c379a00000000000000000000000000000000000000000000000000000000081526004016121e4906136ce565b60405180910390fd5b505050565b6000808273ffffffffffffffffffffffffffffffffffffffff163b119050919050565b600073ffffffffffffffffffffffffffffffffffffffff168273ffffffffffffffffffffffffffffffffffffffff161415612285576040517f08c379a000000000000000000000000000000000000000000000000000000000815260040161227c906138e0565b60405180910390fd5b61228e81611d6e565b156122ce576040517f08c379a00000000000000000000000000000000000000000000000000000000081526004016122c59061394c565b60405180910390fd5b6122da60008383611e6c565b6001600360008473ffffffffffffffffffffffffffffffffffffffff1673ffffffffffffffffffffffffffffffffffffffff168152602001908152602001600020600082825461232a91906130d5565b92505081905550816002600083815260200190815260200160002060006101000a81548173ffffffffffffffffffffffffffffffffffffffff021916908373ffffffffffffffffffffffffffffffffffffffff160217905550808273ffffffffffffffffffffffffffffffffffffffff16600073ffffffffffffffffffffffffffffffffffffffff167fddf252ad1be2c89b69c2b068fc378daa952ba7f163c4a11628f55a4df523b3ef60405160405180910390a46123eb60008383611e71565b5050565b6040518060600160405280600390602082028036833780820191505090505090565b82805461241d90612d22565b90600052602060002090601f01602090048101928261243f5760008555612486565b82601f1061245857805160ff1916838001178555612486565b82800160010185558215612486579182015b8281111561248557825182559160200191906001019061246a565b5b5090506124939190612497565b5090565b5b808211156124b0576000816000905550600101612498565b5090565b6000604051905090565b600080fd5b600080fd5b60007fffffffff0000000000000000000000000000000000000000000000000000000082169050919050565b6124fd816124c8565b811461250857600080fd5b50565b60008135905061251a816124f4565b92915050565b600060208284031215612536576125356124be565b5b60006125448482850161250b565b91505092915050565b60008115159050919050565b6125628161254d565b82525050565b600060208201905061257d6000830184612559565b92915050565b600081519050919050565b600082825260208201905092915050565b60005b838110156125bd5780820151818401526020810190506125a2565b838111156125cc576000848401525b50505050565b6000601f19601f8301169050919050565b60006125ee82612583565b6125f8818561258e565b935061260881856020860161259f565b612611816125d2565b840191505092915050565b6000602082019050818103600083015261263681846125e3565b905092915050565b6000819050919050565b6126518161263e565b811461265c57600080fd5b50565b60008135905061266e81612648565b92915050565b60006020828403121561268a576126896124be565b5b60006126988482850161265f565b91505092915050565b600073ffffffffffffffffffffffffffffffffffffffff82169050919050565b60006126cc826126a1565b9050919050565b6126dc816126c1565b82525050565b60006020820190506126f760008301846126d3565b92915050565b612706816126c1565b811461271157600080fd5b50565b600081359050612723816126fd565b92915050565b600080604083850312156127405761273f6124be565b5b600061274e85828601612714565b925050602061275f8582860161265f565b9150509250929050565b600080fd5b7f4e487b7100000000000000000000000000000000000000000000000000000000600052604160045260246000fd5b6127a6826125d2565b810181811067ffffffffffffffff821117156127c5576127c461276e565b5b80604052505050565b60006127d86124b4565b90506127e4828261279d565b919050565b600067ffffffffffffffff8211156128045761280361276e565b5b602082029050602081019050919050565b600080fd5b600061282d612828846127e9565b6127ce565b905080838252602082019050602084028301858111156128505761284f612815565b5b835b818110156128795780612865888261265f565b845260208401935050602081019050612852565b5050509392505050565b600082601f83011261289857612897612769565b5b81356128a884826020860161281a565b91505092915050565b600080604083850312156128c8576128c76124be565b5b60006128d68582860161265f565b925050602083013567ffffffffffffffff8111156128f7576128f66124c3565b5b61290385828601612883565b9150509250929050565b600080600060608486031215612926576129256124be565b5b600061293486828701612714565b935050602061294586828701612714565b92505060406129568682870161265f565b9150509250925092565b6129698161263e565b82525050565b60006020820190506129846000830184612960565b92915050565b6000602082840312156129a05761299f6124be565b5b60006129ae84828501612714565b91505092915050565b6129c08161254d565b81146129cb57600080fd5b50565b6000813590506129dd816129b7565b92915050565b600080604083850312156129fa576129f96124be565b5b6000612a0885828601612714565b9250506020612a19858286016129ce565b9150509250929050565b7f4e487b7100000000000000000000000000000000000000000000000000000000600052602160045260246000fd5b60038110612a6357612a62612a23565b5b50565b6000819050612a7482612a52565b919050565b6000612a8482612a66565b9050919050565b612a9481612a79565b82525050565b6000602082019050612aaf6000830184612a8b565b92915050565b600080fd5b600067ffffffffffffffff821115612ad557612ad461276e565b5b612ade826125d2565b9050602081019050919050565b82818337600083830152505050565b6000612b0d612b0884612aba565b6127ce565b905082815260208101848484011115612b2957612b28612ab5565b5b612b34848285612aeb565b509392505050565b600082601f830112612b5157612b50612769565b5b8135612b61848260208601612afa565b91505092915050565b60008060008060808587031215612b8457612b836124be565b5b6000612b9287828801612714565b9450506020612ba387828801612714565b9350506040612bb48782880161265f565b925050606085013567ffffffffffffffff811115612bd557612bd46124c3565b5b612be187828801612b3c565b91505092959194509250565b600060039050919050565b600081905092915050565b6000819050919050565b612c168161263e565b82525050565b6000612c288383612c0d565b60208301905092915050565b6000602082019050919050565b612c4a81612bed565b612c548184612bf8565b9250612c5f82612c03565b8060005b83811015612c90578151612c778782612c1c565b9650612c8283612c34565b925050600181019050612c63565b505050505050565b6000606082019050612cad6000830184612c41565b92915050565b60008060408385031215612cca57612cc96124be565b5b6000612cd885828601612714565b9250506020612ce985828601612714565b9150509250929050565b7f4e487b7100000000000000000000000000000000000000000000000000000000600052602260045260246000fd5b60006002820490506001821680612d3a57607f821691505b60208210811415612d4e57612d4d612cf3565b5b50919050565b7f4552433732313a20617070726f76616c20746f2063757272656e74206f776e6560008201527f7200000000000000000000000000000000000000000000000000000000000000602082015250565b6000612db060218361258e565b9150612dbb82612d54565b604082019050919050565b60006020820190508181036000830152612ddf81612da3565b9050919050565b7f4552433732313a20617070726f76652063616c6c6572206973206e6f7420746f60008201527f6b656e206f776e6572206e6f7220617070726f76656420666f7220616c6c0000602082015250565b6000612e42603e8361258e565b9150612e4d82612de6565b604082019050919050565b60006020820190508181036000830152612e7181612e35565b9050919050565b6000604082019050612e8d60008301856126d3565b612e9a60208301846126d3565b9392505050565b7f4552433732313a2063616c6c6572206973206e6f7420746f6b656e206f776e6560008201527f72206e6f7220617070726f766564000000000000000000000000000000000000602082015250565b6000612efd602e8361258e565b9150612f0882612ea1565b604082019050919050565b60006020820190508181036000830152612f2c81612ef0565b9050919050565b7f4e487b7100000000000000000000000000000000000000000000000000000000600052603260045260246000fd5b600081905092915050565b50565b6000612f7d600083612f62565b9150612f8882612f6d565b600082019050919050565b6000612f9e82612f70565b9150819050919050565b7f4552433732313a20696e76616c696420746f6b656e2049440000000000000000600082015250565b6000612fde60188361258e565b9150612fe982612fa8565b602082019050919050565b6000602082019050818103600083015261300d81612fd1565b9050919050565b7f4552433732313a2061646472657373207a65726f206973206e6f74206120766160008201527f6c6964206f776e65720000000000000000000000000000000000000000000000602082015250565b600061307060298361258e565b915061307b82613014565b604082019050919050565b6000602082019050818103600083015261309f81613063565b9050919050565b7f4e487b7100000000000000000000000000000000000000000000000000000000600052601160045260246000fd5b60006130e08261263e565b91506130eb8361263e565b9250827fffffffffffffffffffffffffffffffffffffffffffffffffffffffffffffffff038211156131205761311f6130a6565b5b828201905092915050565b60006131368261263e565b91507fffffffffffffffffffffffffffffffffffffffffffffffffffffffffffffffff821415613169576131686130a6565b5b600182019050919050565b6000819050919050565b61318781613174565b82525050565b600067ffffffffffffffff82169050919050565b6131aa8161318d565b82525050565b600061ffff82169050919050565b6131c7816131b0565b82525050565b600063ffffffff82169050919050565b6131e6816131cd565b82525050565b600060a082019050613201600083018861317e565b61320e60208301876131a1565b61321b60408301866131be565b61322860608301856131dd565b61323560808301846131dd565b9695505050505050565b60008151905061324e81612648565b92915050565b60006020828403121561326a576132696124be565b5b60006132788482850161323f565b91505092915050565b600081905092915050565b600061329782612583565b6132a18185613281565b93506132b181856020860161259f565b80840191505092915050565b60006132c9828561328c565b91506132d5828461328c565b91508190509392505050565b7f4f776e61626c653a206e6577206f776e657220697320746865207a65726f206160008201527f6464726573730000000000000000000000000000000000000000000000000000602082015250565b600061333d60268361258e565b9150613348826132e1565b604082019050919050565b6000602082019050818103600083015261336c81613330565b9050919050565b7f4e487b7100000000000000000000000000000000000000000000000000000000600052601260045260246000fd5b60006133ad8261263e565b91506133b88361263e565b9250826133c8576133c7613373565b5b828206905092915050565b60006040820190506133e86000830185612a8b565b6133f560208301846126d3565b9392505050565b7f4552433732313a207472616e736665722066726f6d20696e636f72726563742060008201527f6f776e6572000000000000000000000000000000000000000000000000000000602082015250565b600061345860258361258e565b9150613463826133fc565b604082019050919050565b600060208201905081810360008301526134878161344b565b9050919050565b7f4552433732313a207472616e7366657220746f20746865207a65726f2061646460008201527f7265737300000000000000000000000000000000000000000000000000000000602082015250565b60006134ea60248361258e565b91506134f58261348e565b604082019050919050565b60006020820190508181036000830152613519816134dd565b9050919050565b600061352b8261263e565b91506135368361263e565b925082821015613549576135486130a6565b5b828203905092915050565b7f4f776e61626c653a2063616c6c6572206973206e6f7420746865206f776e6572600082015250565b600061358a60208361258e565b915061359582613554565b602082019050919050565b600060208201905081810360008301526135b98161357d565b9050919050565b7f4552433732313a20617070726f766520746f2063616c6c657200000000000000600082015250565b60006135f660198361258e565b9150613601826135c0565b602082019050919050565b60006020820190508181036000830152613625816135e9565b9050919050565b6000604082019050818103600083015261364681856125e3565b90506136556020830184612960565b9392505050565b7f4552433732313a207472616e7366657220746f206e6f6e20455243373231526560008201527f63656976657220696d706c656d656e7465720000000000000000000000000000602082015250565b60006136b860328361258e565b91506136c38261365c565b604082019050919050565b600060208201905081810360008301526136e7816136ab565b9050919050565b7f45524337323155524953746f726167653a2055524920736574206f66206e6f6e60008201527f6578697374656e7420746f6b656e000000000000000000000000000000000000602082015250565b600061374a602e8361258e565b9150613755826136ee565b604082019050919050565b600060208201905081810360008301526137798161373d565b9050919050565b600081519050919050565b600082825260208201905092915050565b60006137a782613780565b6137b1818561378b565b93506137c181856020860161259f565b6137ca816125d2565b840191505092915050565b60006080820190506137ea60008301876126d3565b6137f760208301866126d3565b6138046040830185612960565b8181036060830152613816818461379c565b905095945050505050565b600081519050613830816124f4565b92915050565b60006020828403121561384c5761384b6124be565b5b600061385a84828501613821565b91505092915050565b600061386e8261263e565b91506138798361263e565b92508261388957613888613373565b5b828204905092915050565b7f4552433732313a206d696e7420746f20746865207a65726f2061646472657373600082015250565b60006138ca60208361258e565b91506138d582613894565b602082019050919050565b600060208201905081810360008301526138f9816138bd565b9050919050565b7f4552433732313a20746f6b656e20616c7265616479206d696e74656400000000600082015250565b6000613936601c8361258e565b915061394182613900565b602082019050919050565b6000602082019050818103600083015261396581613929565b905091905056fea26469706673582212209a651827f12ab10b7579094bbf5a027217f9c0de8357700e16eceff15f81f3a264736f6c63430008080033",
  "linkReferences": {},
  "deployedLinkReferences": {}
}